S00B00004C45442E7372656344
S113000012C019C018C017C016C015C014C013C040
S113001012C011C010C00FC00EC00DC00CC00BC068
S11300200AC009C008C011241FBECFE5D4E0DEBF5A
S1130030CDBF02D040C0E4CF8FE087BB84E081BB5A
S113004038E022E091E038BB82BB4FE352E46FE03A
S1130050415050406040E1F700C0000088BB12BA34
S11300604FE352E46FE0415050406040E1F700C07C
S1130070000028BB82BB4FE352E46FE04150504084
S11300806040E1F700C0000098BB12BA4FE352E4AD
S11300906FE0415050406040E1F700C0000018BAE2
S11300A082BB4FE352E46FE0415050406040E1F7BF
S10D00B000C00000C8CFF894FFCF91
S9030000FC
